:020000022000DC
:106000000000012011640200FB6A0200B973020063
:10601000FB6A0200FB6A0200FB6A0200000000004B
:10602000000000000000000000000000FB6A020009
:10603000FB6A020000000000FB6A0200FB6A02002B
:10604000FB6A0200FB6A0200FB6A0200FB6A0200B4
:10605000FB6A0200FB6A0200FB6A0200FB6A0200A4
:10606000FB6A0200FB6A0200FB6A0200FB6A020094
:10607000FB6A0200FB6A0200FB6A0200FB6A020084
:10608000FB6A0200B56F0200FB6A0200FB6A0200B5
:10609000FB6A0200FB6A0200E1710200FB6A020077
:1060A000FB6A0200FB6A0200FB6A0200FB6A020054
:1060B000FB6A0200FB6A0200000000000000000012
:1060C000FB6A0200FB6A0200FB6A0200FB6A020034
:0C60D000FB6A0200FB6A0200FB6A02008F
:1064100000F074FB0E480F490022814201D004C0F5
:10642000FBE70D480D490E4A814202D008CA08C058
:10643000FAE70C484FF47001026842EA0102026078
:10644000BFF34F8FBFF36F8F00F02FFB00DE000014
:10645000782B0020CC2B0020082B0020782B00204C
:10646000E873020088ED00E0F0B503AF2DE9000FFE
:1064700095B08046DD48CDE9018098F83C0080B1B8
:1064800098F82800002800F0978100F095FC02465B
:106490000B46D8E90801121A73EB010280F08181E2
:1064A0008CE100F05FFED24A5179002940F09781DB
:1064B0000121517100F092FCCE48CF4CCF4D0068C5
:1064C000C0F3072045280DD904F108005A215A26A7
:1064D00000F08AFCC0B2C5F85065B0FA80F04FEA0F
:1064E000501901E04FF000092046152100F07CFC16
:1064F0000646201D152100F077FCF1B231B1C0B283
:10650000B0FA80F0400949EA000600E0012604F1F3
:106510000C000021012200F06BFC002E40F0628193
:10652000C0B2002800F05E8100200121C5F8F8000B
:106530004FF080400160D5F8F8000028FBD0012022
:106540000021C5F81005C5F8FC102860D5F8FC003E
:106550000028FBD0AA484FF40001AB4A8164A94946
:10656000C1F8042301228A600A6001680029FCD175
:1065700000F0F8FDA54940220A7000F02FFCA44865
:106580004FF40031A34A4FF480230DF10C0B01604E
:106590000025A148012681500321016183504FF459
:1065A0000023416183504FF48013816183500022A6
:1065B000C1610C210160002341608160C160974886
:1065C00097498DF80C50C8E90C105846012100F08D
:1065D00037FA9DF80C4002218DF8485012A801228C
:1065E000002300F02DFA8F480BF10409CDF841008B
:1065F0001820ADF83E000BF1230A8B48CDF82E0091
:106600008A4809904FF48030CDE90D5088480690B3
:10661000884805904FF4806008909DF848008DF8F8
:10662000406000028DF83C60049071480A95073084
:106630008DF833408DF83250ADF82C500396079604
:10664000BFF35F8FD0E84F1F002940F0C480C0E83F
:10665000416F0029F6D1BFF35F8F77499DF8400065
:10666000002818BF0BF1350010DF00F017FD0028DF
:1066700040F0B580BDF83A00BDF83E10002808BFD4
:1066800003219DF83C00ADF84C1008BF0120012605
:106690008DF84A008DF8486012AD2020294600F0A0
:1066A00051FDBDF8240048B1BDF82600ADF84A0000
:1066B00023208DF8486012A900F044FD9DF82800C1
:1066C00050B19DF829008DF84A0001208DF848004E
:1066D00012A9212000F036FD9DF82A0050B19DF846
:1066E0002B008DF84A0001208DF8480012A92220C5
:1066F00000F028FD9DF82C0038B19DF82D008DF894
:10670000480012A9012000F01DFD9DF82E0050B197
:106710009AF804008DF84C00DAF80000129012A9E3
:10672000402000F00FFD039838B199E80E0028468C
:106730000EC02946412000F005FD9DF8340038B117
:106740009DF835008DF8480012A9422000F0FAFCAF
:106750009DF8360038B19DF837008DF8480012A931
:10676000432000F0EFFC9DF8380038B19DF8390067
:106770008DF8480012A9A02000F0E4FC079828B189
:106780000898129012A9A12000F0DCFC2B4812906E
:1067900012A860DF00F082FC08BB1D494FF48000A6
:1067A000086000F009FB002210F5004041F10001F3
:1067B00088F82820C8E90801D8E9080101AA00F0F2
:1067C000C9FA032088F83C00012088F8280015B099
:1067D000BDE8000FF0BDBFF32F8FBFF35F8F00F058
:1067E0005FF9FEDE00F02CFBFEDE00BFD873020076
:1067F000BC2B002004010010001200100800004013
:1068000004150140001001400200080011E400E0FE
:1068100000E100E0D4FDFFFF340700500D0E0F1023
:106820001112131401000007010101000100000111
:1068300004000E00D47302002F710200082B002008
:10684000E0B502AF7A4981460322084601F14003D0
:10685000984200F0EA8000F1080400F14003BFF321
:106860005F8F54E8005F25B944E80025002DF8D17A
:1068700005E0BFF32F8F1846BFF35F8FE6E70021D7
:10688000BFF35F8F80F83C106A49C0F83890C0E9C8
:106890000491D9F80010BFF35F8FC1600A4659E830
:1068A000001F914206D1BFF35F8F49E800031BB977
:1068B000012302E0BFF32F8F0023002BBFF35F8F74
:1068C000EBD042B9B9F8080020B15B49B9F80A0029
:1068D000086000E040BF09F1040A4FF0FF3B4FF0B1
:1068E0000008CDF804A099F80C004A46534900F07E
:1068F000E3FA00F061FA06460D46DAF80040ECB122
:10690000D4E90001301A75EB010014D3204600F0E1
:10691000D5F9A069CAF8000004F10800BFF35F8F41
:1069200050E8001F21F0040140E80012002AF7D1CE
:10693000BFF35F8FE1E704F1180ADEE7BFF35F8F73
:1069400059E8004F49E800800028F9D1BFF35F8F74
:10695000DDF804A094B32646C4E900BBE46806F160
:106960000805BFF35F8F55E8000F20F0020145E8EE
:106970000012002AF7D1C007BFF35F8FEAD0716918
:1069800030468847D6E9000181EA0B0180EA0B0016
:106990000843DFD0BFF35F8F55E8000F40F00401DC
:1069A00045E80012002AF7D1BFF35F8F40075EBFB2
:1069B000DAF80000B061CAF80060CBE74FF0FF32B0
:1069C0004FF0FF335046016831B3D1E90054A34280
:1069D0002E4638BF1646AA4228BF2A46A34218BFF1
:1069E000324684EA0B0685EA0B0528BF2346354369
:1069F0007DB98C6908310460BFF35F8F51E8004FA7
:106A000024F0040441E80045002DF7D1BFF35F8F67
:106A1000D9E701F11800D6E799F80C0000F062FA06
:106A200000283FF466AF20BF5DE700F039F8FEDED6
:106A3000782B00206964020000EF00E0A56C0200E2
:106A4000F0B503AF2DE9800F0678CDB29846914698
:106A5000824600244FF0010BA54214D0082C15D01B
:106A600048464146224600F0EFFBC007E0B20BFA71
:106A700000F046EA000108BF26EA00018AF800108B
:106A800001340E46E8E7BDE8080FF0BD0120012102
:106A900000F01FF8FEDE80B56F4600F0CFFBFEDE93
:106AA00080B56F46FFF7F7FFFEDE80B56F4600F05A
:106AB00001F8FEDEF8B504AF6C46204600F0E0F8C1
:106AC0002046FFF7BDFEFEDE80B56F4600F090FB6E
:106AD000FEDE80B56F46FFF7F7FFFEDE80B56F463E
:106AE00000F001F8FEDE80B56F46FFF7EDFFFEDE39
:106AF00080B56F46FFF7E8FFFEDEFEE770477047A0
:106B000080B56F46FFF7F4FFFEDED4D4F0B503AFD7
:106B10004DF804BD0F4D04460F49104EE86A00F0D1
:106B20000300022808BF0E460021C8070CD105F15A
:106B3000180021460122B04700210028F5D0012885
:106B400005D101340121F0E75DF804BBF0BDFFF78A
:106B5000C5FFFEDE082B0020616B0200956B020072
:106B6000BCB504AFA2B10469C368BFF35F8F9C4298
:106B700002D9DD432C4406E014B1C3F5806402E081
:106B800040F2FF34E41A1CB1009400F00EF8BCBDD2
:106B90000020BCBDDCB504AFC3684FF48064BFF314
:106BA0005F8F009400F001F8DCBDF0B503AF2DE974
:106BB000000BBD6888468146AA4238BF1546EC18CE
:106BC000B4F5806F0ED9D9F80400C3F5806641464C
:106BD0001844324600F034FBD9F8040008EB0601F3
:106BE000AA1B04E0D9F8040041462A46184400F0E4
:106BF00027FBBFF35F8F6FF39F24C9F80C40284633
:106C0000BDE8000BF0BDE0B502AF00F00BFB8CBDA2
:106C1000E0B502AF00F0A6FA07490A784AB90122A6
:106C20000A704870087918B900200A7100F0FAFA61
:106C30008CBDFFF749FFFEDEBC2B0020B0B502AFD4
:106C40000E4CA07878B1072808D24FF0FF3101FA36
:106C500000F0E178084300F07F0002E0793060F056
:106C60007F00FFF7D0FF00200025FFF7CCFF6580F5
:106C700025706078BDE8B04000F098BABC2B0020C9
:106C8000D0B502AF044600F0EFF8C0071FBF0020E8
:106C90002081C4E90000217318BFD0BDFFF700FFB9
:106CA000FEDED4D480B56F46018919B1024940890E
:106CB000086080BD40BF80BD00EF00E0D0B502AFEE
:106CC000836800F10801BFF35F8F03F00302012A1C
:106CD0002DD151E8002F9A4208D143F00203BFF3AF
:106CE0005F8F41E800341CB9012302E0BFF32F8F0E
:106CF0000023002B1346BFF35F8FE6D001690A68BB
:106D0000BFF35F8FC260134651E8002F9A4206D14D
:106D1000BFF35F8F41E800041CB9012402E0BFF318
:106D20002F8F0024002CBFF35F8FEBD003B1D0BDB9
:106D3000088918B1488902490860D0BD40BFD0BD5C
:106D400000EF00E000497047D8730200FFF7B6BFBC
:106D50007047D4D4F0B503AF4DF804BD5368134D5C
:106D60001C68AC4206D15D68114CA54204BF9D6809
:106D7000A54202D0FFF794FEFEDEDB680D4CA34275
:106D8000F8D112680D460646D2E900348C423CBF69
:106D900025461E46834238BF18468C4218BF3046EF
:106DA000C2E900055DF804BBF0BD00BF456D0200FF
:106DB0004D6D0200516D02000648074A006B1268D3
:106DC00000F0010182EAC151420A11EBC05042F1C8
:106DD00000017047402B002004150140C0B200287C
:106DE00018BF012000F0E2B94FF0FF3200F000B808
:106DF000B0B502AF046802EA010304EA02059D424D
:106E000001D10120B0BD1C409C4214D10B4B012488
:106E1000C3F804411C68E407FCD061EA0201016088
:106E20001868C007FCD00020C3F804011868C00728
:106E3000FCD00020B0BD0220B0BD00BF00E4014086
:106E400080B56F4600F0F5F90548064A016801F47F
:106E5000E0611143016000F0ECF900F0EDF9FCE7AE
:106E60000CED00E00400FA05B0B502AF114890F84F
:106E70003410BFF35F8FCAB2022A15D800F1340470
:106E8000D4E84F3F934207D10131BFF35F8FC4E88D
:106E9000451F1DB9012402E0BFF32F8F00241946BE
:106EA000002CBFF35F8FE6D00020032A38BF0120FB
:106EB000B0BD00BF402B0020F0B503AF4DF804BDBE
:106EC0000D46C0B20649144601EB001600F04AF91F
:106ED000C6E902545DF804BBBDE8F040FFF77EBF91
:106EE000402B0020F0B503AF2DE9800FC6B29B46C2
:106EF00015463401DFF8B49000F034F949F8045035
:106F000009EB06148046C4F804B0FFF755FF82462B
:106F1000401B894671EB0B0029D2042E41D21AF195
:106F2000030049F100018B45024688BF2A4685428D
:106F300088BF28468B4518BF104620F07F411C486B
:106F400000EB8602C2F83C1206F1100101F01F01AD
:106F5000012202FA01F1B5EB0A026BEB0903B2F56B
:106F6000400273F1000234BF016041600CE006F1A1
:106F70001000012100F01F0001FA00F00C494860E8
:106F80004FF0FF30C4E900004046FFF727FF002024
:106F9000BAEB050179EB0B0138BF0120BDE8080F02
:106FA000F0BD30460421FFF794FDFEDE402B0020AB
:106FB00004130140F0B503AF2DE9800F1B4C20688E
:106FC000012803D10020206000F034F8A06C0128D3
:106FD00003D10020A06400F02DF815484FF480394B
:106FE0004FF0FF3A002500F10806032D1AD004F1F6
:106FF0003C0050F82510012911D1002109FA05F8AB
:1070000040F8251000F0AEF8C4F804828346D6E9B3
:10701000001046E902AA88475846FFF7DFFE01350F
:107020001036E2E7BDE8080FF0BD00BF04110140D3
:10703000402B0020F0B503AF4DF804BD00F092F8EE
:107040001449864651E80C2F013241E80C23002BED
:10705000F8D1530A10484FF4400414EBC25243F1E4
:10706000000300244FF4803C032C0BD0D1E90056E0
:10707000AD1A76EB03053CBF0CFA04F5056001344C
:107080001031F1E770465DF804BBBDE8F040FFF752
:10709000A5BE00BF402B002004130140132825D9B2
:1070A000A0F5005109292ED943F20101411A052901
:1070B00030D9A0F54851052931D9B0F5805F1CBF02
:1070C00041F2010188422FD041F20201884218BFEB
:1070D000B0F54C5F28D0B0F5505F1CBF43F20141C2
:1070E000884221D001204FF0FF310BE0DFE800F0B3
:1070F0000A1C1C1C1C1C1C1C1C1C1C1C1C1C1C1CE2
:107100001C1C1C1C7047DFE801F00F0F0F0F0F0F46
:107110000F0F0F0FDFE801F0080808080808DFE884
:1071200001F003030303030301460120704780B508
:107130006F4601281CBF41F201018842FFF7B0FCF5
:10714000FEDED4D480B56F46054A69DFFFF7A6FF9F
:1071500008B1042900D180BDFFF7A2FCFEDE00BF0C
:10716000082B0020D0B502AF0D498879BFF35F8F9F
:1071700088B9EFF31082012372B68B71094B1C683A
:107180008C605C68CC60084919604FF0FF31596031
:10719000D10700D162B6002818BF0120D0BD00BFC2
:1071A000BC2B002080E100E0FC06FFFD80B56F46AF
:1071B00078B90849EFF31080002272B6064B8A7145
:1071C0008A681A40054BC0071A60C968596000D127
:1071D00062B680BDBC2B0020FC06FFFD00E100E094
:1071E00080B56F46FFF7BEFFBDE88040FFF7DEBF0A
:1071F00080B56F4600F01BF80348017809B90121FA
:10720000017000F003F8FEDEB82B002080B56F4659
:107210000348016821F480210160FFF73CFCFEDE99
:1072200024ED00E007F8010C781EFFF76FBC72B682
:107230007047BFF34F8F704700BF704700DEFEDE20
:1072400000F000B800F016B8930641BF02F01F002E
:1072500021FA00F000217047002A08BF704702F0B1
:107260001F03524202F01F02D84001FA02F21043FB
:10727000D9407047F0B503AF2DE900070F2A61D957
:10728000434213F0030400EB040C16D003460E46F1
:10729000357803F8015B63450FD2757803F8015B1D
:1072A00063453EBFB57803F8015B634505D2F578C9
:1072B000043603F8015B6345EAD3A2EB040E01EB4D
:1072C00004082EF0030918F003010CEB09033CD06D
:1072D000B9F1010F52DB4FEAC10A28F0030101F1B5
:1072E0000805CAF10002096802F0180655F8042CD6
:1072F00021FA0AF102FA06F421434CF8041B9C45DA
:107300003CD2296822FA0AF201FA06F422434CF828
:10731000042B9C453FBF6A6821FA0AF102FA06F481
:1073200021433CBF4CF8041B9C4527D2A96822FA94
:107330000AF2103501FA06F422434CF8042B9C455E
:10734000D4D31BE00346F2B933E0B9F1010F15DBEA
:10735000444621684CF8041B9C450FD261684CF8E8
:10736000041B9C453EBFA1684CF8041B9C4505D2FC
:10737000E16810344CF8041B9C45EAD308EB090182
:107380000EF00302AAB11A440E7803F8016B93427F
:107390000FD24E7803F8016B93423EBF8E7803F80C
:1073A000016B934205D2CE78043103F8016B93420E
:1073B000EAD3BDE80007F0BD70460421084203D1BE
:1073C000EFF3088000F004B8EFF3098000F000B894
:0473D000FEE7D4D42C
:1073D40053434448456D02004D6D02004D6D02005B
:0473E400516D0200E5
:1073E80053454747455220525454000000000000BE
:1073F8000100000000000000382B0020CC2B0020EA
:10740800000400000000000000000000010000006F
:107418006465666D74000000FFFFFFFFFFFFFFFF5C
:107428000000000000000000FFFFFFFFFFFFFFFF5C
:107438000000000000000000FFFFFFFFFFFFFFFF4C
:107448000000000000000000000000000000000034
:040000032000641164
:00000001FF
